{
  "contractName": "PolarshipCoin",
  "abi": [
    {
      "constant": true,
      "inputs": [],
      "name": "name",
      "outputs": [
        {
          "name": "",
          "type": "string"
        }
      ],
      "payable": false,
      "stateMutability": "view",
      "type": "function"
    },
    {
      "constant": true,
      "inputs": [],
      "name": "totalSupply",
      "outputs": [
        {
          "name": "",
          "type": "uint256"
        }
      ],
      "payable": false,
      "stateMutability": "view",
      "type": "function"
    },
    {
      "constant": true,
      "inputs": [
        {
          "name": "",
          "type": "address"
        }
      ],
      "name": "balanceOf",
      "outputs": [
        {
          "name": "",
          "type": "uint256"
        }
      ],
      "payable": false,
      "stateMutability": "view",
      "type": "function"
    },
    {
      "constant": true,
      "inputs": [],
      "name": "owner",
      "outputs": [
        {
          "name": "",
          "type": "address"
        }
      ],
      "payable": false,
      "stateMutability": "view",
      "type": "function"
    },
    {
      "constant": true,
      "inputs": [],
      "name": "symbol",
      "outputs": [
        {
          "name": "",
          "type": "string"
        }
      ],
      "payable": false,
      "stateMutability": "view",
      "type": "function"
    },
    {
      "constant": true,
      "inputs": [],
      "name": "price",
      "outputs": [
        {
          "name": "",
          "type": "uint256"
        }
      ],
      "payable": false,
      "stateMutability": "view",
      "type": "function"
    },
    {
      "inputs": [
        {
          "name": "_supply",
          "type": "uint256"
        },
        {
          "name": "_tokenPerEth",
          "type": "uint256"
        },
        {
          "name": "_name",
          "type": "string"
        },
        {
          "name": "_symbol",
          "type": "string"
        }
      ],
      "payable": false,
      "stateMutability": "nonpayable",
      "type": "constructor"
    },
    {
      "payable": true,
      "stateMutability": "payable",
      "type": "fallback"
    }
  ],
  "bytecode": "0x608060405234801561001057600080fd5b506040516107fc3803806107fc8339810180604052810190808051906020019092919080519060200190929190805182019291906020018051820192919050505083600560003373ffffffffffffffffffffffffffffffffffffffff1673ffffffffffffffffffffffffffffffffffffffff1681526020019081526020016000208190555082670de0b6b3a76400008115156100a857fe5b0460038190555081600090805190602001906100c592919061012e565b5080600190805190602001906100dc92919061012e565b508360028190555033600460006101000a81548173ffffffffffffffffffffffffffffffffffffffff021916908373ffffffffffffffffffffffffffffffffffffffff160217905550505050506101d3565b828054600181600116156101000203166002900490600052602060002090601f016020900481019282601f1061016f57805160ff191683800117855561019d565b8280016001018555821561019d579182015b8281111561019c578251825591602001919060010190610181565b5b5090506101aa91906101ae565b5090565b6101d091905b808211156101cc5760008160009055506001016101b4565b5090565b90565b61061a806101e26000396000f300608060405260043610610078576000357c0100000000000000000000000000000000000000000000000000000000900463ffffffff16806306fdde031461024457806318160ddd146102d457806370a08231146102ff5780638da5cb5b1461035657806395d89b41146103ad578063a035b1fe1461043d575b600080341115806100eb5750600060056000600460009054906101000a900473ffffffffffffffffffffffffffffffffffffffff1673ffffffffffffffffffffffffffffffffffffffff1673ffffffffffffffffffffffffffffffffffffffff1681526020019081526020016000205411155b156100f557600080fd5b349050600081111561016b57600460009054906101000a900473ffffffffffffffffffffffffffffffffffffffff1673ffffffffffffffffffffffffffffffffffffffff166108fc829081150290604051600060405180830381858888f19350505050158015610169573d6000803e3d6000fd5b505b6003548181151561017857fe5b04600560003373ffffffffffffffffffffffffffffffffffffffff1673ffffffffffffffffffffffffffffffffffffffff16815260200190815260200160002060008282540192505081905550600354818115156101d257fe5b0460056000600460009054906101000a900473ffffffffffffffffffffffffffffffffffffffff1673ffffffffffffffffffffffffffffffffffffffff1673ffffffffffffffffffffffffffffffffffffffff1681526020019081526020016000206000828254039250508190555050005b34801561025057600080fd5b50610259610468565b6040518080602001828103825283818151815260200191508051906020019080838360005b8381101561029957808201518184015260208101905061027e565b50505050905090810190601f1680156102c65780820380516001836020036101000a031916815260200191505b509250505060405180910390f35b3480156102e057600080fd5b506102e9610506565b6040518082815260200191505060405180910390f35b34801561030b57600080fd5b50610340600480360381019080803573ffffffffffffffffffffffffffffffffffffffff16906020019092919050505061050c565b6040518082815260200191505060405180910390f35b34801561036257600080fd5b5061036b610524565b604051808273ffffffffffffffffffffffffffffffffffffffff1673ffffffffffffffffffffffffffffffffffffffff16815260200191505060405180910390f35b3480156103b957600080fd5b506103c261054a565b6040518080602001828103825283818151815260200191508051906020019080838360005b838110156104025780820151818401526020810190506103e7565b50505050905090810190601f16801561042f5780820380516001836020036101000a031916815260200191505b509250505060405180910390f35b34801561044957600080fd5b506104526105e8565b6040518082815260200191505060405180910390f35b60008054600181600116156101000203166002900480601f0160208091040260200160405190810160405280929190818152602001828054600181600116156101000203166002900480156104fe5780601f106104d3576101008083540402835291602001916104fe565b820191906000526020600020905b8154815290600101906020018083116104e157829003601f168201915b505050505081565b60025481565b60056020528060005260406000206000915090505481565b600460009054906101000a900473ffffffffffffffffffffffffffffffffffffffff1681565b60018054600181600116156101000203166002900480601f0160208091040260200160405190810160405280929190818152602001828054600181600116156101000203166002900480156105e05780601f106105b5576101008083540402835291602001916105e0565b820191906000526020600020905b8154815290600101906020018083116105c357829003601f168201915b505050505081565b600354815600a165627a7a72305820e05d94229abac24aee3f936102ac02395c24045f53b3649ab921b122bb9def620029",
  "source": "pragma solidity ^0.4.18;\r\n\r\ncontract PolarshipCoin {\r\n    \r\n    string public name; // token name\r\n    string public symbol;\r\n    uint256 public totalSupply;\r\n    uint256 public price;\r\n    \r\n    address public owner;\r\n    \r\n    mapping(address => uint256) public balanceOf; // balance of respective addresses\r\n     \r\n    //event Transfer(address indexed from, address indexed to, uint256 value);\r\n    \r\n    constructor(uint256 _supply, uint256 _tokenPerEth, string _name, string _symbol){\r\n        balanceOf[msg.sender] = _supply;\r\n        price = 1 ether / _tokenPerEth; // unit type conversion study required\r\n        name = _name;\r\n        symbol = _symbol;\r\n        totalSupply = _supply;\r\n        owner = msg.sender; // address\r\n    }\r\n    \r\n    modifier onlyOwner() {if (msg.sender != owner) throw;\r\n        _; // why do i have to add this??\r\n    }\r\n    \r\n    /*function sendToken(address _to, uint256 _value) onlyOwner{\r\n        if(balanceOf[msg.sender] < _value) throw;\r\n        if(balanceOf[_to] + _value < balanceOf[_to]) throw; // in case of sending negative\r\n        balanceOf[msg.sender] -= _value;\r\n        balanceOf[_to] += _value;\r\n        // Transfer(msg.sender, _to, _value)\r\n    }*/\r\n    \r\n    function () payable {\r\n        if(msg.value <=0 || balanceOf[owner] <= 0) throw;\r\n        \r\n        uint256 amount = msg.value;\r\n        if(amount > 0){ // will be throwed\r\n            owner.transfer(amount);\r\n        }\r\n        balanceOf[msg.sender] += amount/price; // 1 token = 1/2 eth\r\n        balanceOf[owner] -= amount/price;\r\n    }\r\n    \r\n}",
  "sourcePath": "C:\\Users\\Jin H\\blockWorkspace\\truffle_test2\\contracts\\PolarshipCoin.sol",
  "compiler": {
    "name": "solc",
    "version": "0.4.24+commit.e67f0147.Emscripten.clang"
  },
  "schemaVersion": "2.0.1",
  "updatedAt": "2018-08-11T13:38:11.782Z"
}